:040000006F10001F5E
:1000040000000000000000006F0080086F00401E28
:1000140000000000000000000000000000000000DC
:1000240000000000000000000000000000000000CC
:100034006F004006000000006F00E00500000000B3
:100044006F0080056F0060056F0040056F0020059C
:100054006F0000056F00E0046F00A02100000000A5
:100064006F0060046F0040046F0020046F00000400
:100074006F00C01E6F00C003000000006F0060032B
:100084006F0040036F0020036F0000036F00E00265
:1000940001A001A001A001A001A001A001A001A054
:1000A40001A001A001A001A001A001A001A001A044
:1000B40001A001A001A001A001A001A0B717004068
:1000C400930670052380D704130780FA2380E7047E
:1000D40003C6B7041376F60DA385C704238007046B
:1000E400137605022DC603C6A700118A0DE22380EC
:1000F400D7042380E70403C7A700136747002385B9
:10010400E7009307004B01000100FD17EDFFB7174F
:100114000040930670052380D704130780FA2380D8
:10012400E7047D892394A700010001000100010078
:10013400238007042380D7042380E7049306100553
:1001440037270040A303D7802380070482801376D7
:1001540005046DDE03C6A700418A0DE22380D7049F
:100164002380E70403C7A700136707012385E7007B
:100174009307007D01000100FD17EDFFB717004054
:10018400930670052380D704130780FA7D892380A2
:10019400E704136505042394A7000100010001008E
:1001A4000100238007042380D7042380E7049306F7
:1001B40030053727004079B7411181460146814512
:1001C400114506C60924B71700401307700523809C
:1001D400E704130780FA2380E70403C7670413675F
:1001E40017002383E70423800704B240410182807F
:1001F4008146014681451145F922B717004013078E
:1002040070052380E704130780FA2380E7047D57F1
:100214002396E70203C76704136717002383E704E1
:100224002380070401A0BD473305F50201007D15B5
:1002340075FD8280411122C426C206C6AA840144E7
:1002440063179400B2402244924441018280050421
:100254001305803E4204C13F4180DDB7B71700401B
:10026400130700032388E702854723ACF188730052
:10027400203097E0FFDFE780E06D7300203041110C
:1002840006C622C426C24AC09304100A97E0FFDFC0
:10029400E780009C154997E0FFDFE780609F1784A3
:1002A40001E0130464787D2197F0FFDFE780805D2F
:1002B40097E0FFDFE78020A31C41E39697FE834786
:1002C4004500D91793F7F70FE36FF9FC8A07A29754
:1002D40098438347650022970287114591E30145BE
:1002E40097E0FFDFE780205D7DBF0545F5FBC5BFD7
:1002F4000945FDF7EDB74145E5F7D5B7130500020C
:10030400E5F3F1BFE9DF2145E1BF2303048015478D
:100314002303E48001002302A48082808307648095
:10032400E3CE07FE23030480828083076480E3CE48
:1003340007FE03454480828083076480E3CE07FE82
:100344002302A4808280411126C44AC24EC006C63C
:100354001377F50BAD47AA892E8995446306F700F8
:1003640019456537653F8D444E854537FD59FD1464
:1003740063983401B240A244124982494101828007
:10038400135509011375F50F453F2209CDB7011126
:1003940026CC06CEB704080051371545BD37713752
:1003A40069372AC6A53F32459377150089EB136553
:1003B40015001375F50FF240E24405618280FD14C7
:1003C400E9FC0145CDBF397126DC4ADA4ED852D654
:1003D40056D45AD25ED006DE62CE66CCB7E700E0D1
:1003E4007D5783AA070022C603AA470023A0E71863
:1003F40023A2E718B7170040130770052380E7040A
:10040400130780FA2380E70483C74704930B75FF1F
:10041400B684E20793FBFB0F8546AA892E8B3289AB
:1004240037240040E187015763FA76016308D50059
:100434008946130700026313D5000157D98F93F738
:10044400F70FB71C00402382FC0411472303E48008
:100454001305F00F5D3D094CD13563697C11B70775
:1004640007003E9B378707007955637EEB02B3078D
:100474009B00636AF702A9476399F90689E48144FA
:10048400713D26850DA0DA850945753D05090345AD
:10049400F9FFFD14050B4D3581C49377FB0FFDF770
:1004A400FD3569FD7D55B71700401307700523809E
:1004B400E704130780FA2380E70403C74704418B4A
:1004C4002382E704F250B7E700E023A0571123A2E8
:1004D4004711E25432445259C259325AA25A125B59
:1004E400825B724CE24C21618280A5476395F906D8
:1004F40085691309F00FB3069900B3742B01B69400
:100504001349F9FFB3749900856B33796901416B21
:100514009387F9FFB3F7270199E363FC340193D977
:100524004900C147E3E637FF99BF0569C1697D19F1
:10053400D9B71305800D638869011305000263842C
:10054400790113051008CA85FD3B913521DD4E99CB
:10055400B3843441D9B7DA852D45F533CA94E30021
:1005640099F20509D933A30FA9FED5BF9387F9FFE3
:1005740093F7F70F636CFC0803C75C04B707080024
:100584001377070219E3B78707007955E37DFBF07A
:1005940033079B00E3E9E7F089476390F904898016
:1005A400D549E38E04ECDA850945713B110903272B
:1005B400C9FF91472320E48003076480E34E07FECC
:1005C40023033481FD17EDFBFD14110B81C49377D4
:1005D400FB0FE9FF6D3B71F5F1B58547E387F9F44E
:1005E400DA852D458D339389F4FFE38A04E8353B9E
:1005F40093F7390091EB83260480032709009307BE
:100604004900E39FE6E63E89CE84F1BFB547639691
:10061400F9001305900BD5399DB5B1471305B00A00
:10062400E38BF9FE9947639EF902DA852D45213B58
:1006340081448D4BA149D539639674018327048085
:100644002320F9008504E39834FF832704801317DB
:100654002B01635507002312F90015B52322F90075
:1006640039BD9D476399F90281451305B004E13909
:10067400BD442320090023220900FD597D3193F74D
:100684007400CA9703C70700FD14398D2380A7009F
:10069400E39634FFEDB3A1476392F904CD39814465
:1006A400630D0B008D479304C0036308FB009304A0
:1006B400000563048B01930440041375C507E3002C
:1006C40095DC194599319939054581312685AD3136
:1006D40009459D316D39E31405DAE9B3914763990E
:1006E400F90013056006153115391305900925B76E
:1006F400E38709D8F15469B319CDB717004013073C
:1007040070052380E704130780FA2380E704239607
:10071400A70223800704828019C1814799E9828056
:100724003387F500834607003307F5008507230068
:10073400D700E397C7FEE5B719C1FD5781E9828069
:10074400910503A7C5FF1105232EE5FE7D16E319C8
:10075400F6FEF5B7797122D417340000130444303F
:100764001C4006D626D24AD04ECE91C782979737E0
:10077400000023A7072E5C4089CB03D5418EAD3FF3
:100784005C40829703D5618E853F1C40639C0718AB
:100794009737000083C75740858B95C7973700006C
:1007A400A38C073E173700000347373F914763FC8C
:1007B400E700752B9737000083C7373EF9178A0780
:1007C400A2979C4382979737000083C7A741918BD8
:1007D40089C7970001E0E780E0621C4491C38297D7
:1007E4009387018E984317360000034676253E8989
:1007F400973400009384C4249737000083C74724A8
:1008040093961700BA9683D606006383061097372B
:10081400000083C7E72263FBC70686073E9783551C
:1008240007002310070003D5418E2EC6F1359387A8
:10083400418F9C431735000003458520131725007D
:10084400BA979C43B2458297AA8903D5618E6D35C8
:100854009737000083C7C71E139717008327090023
:10086400BA9703D70700B3E9E9002390370183C798
:100874000400850793F7F70F173700002302F71CCE
:10088400173700000347D71B63E6E70097370000DC
:100894002388071A1C40D9E79387C18E98433E8466
:1008A40051C39737000083C7972F91CB9737000028
:1008B40083C7B72E89E7970001E0E78080191C40C1
:1008C40082972A8425C19C48AA97173700002321C0
:1008D400F7189387018F9C4381CF03D5418E293D1F
:1008E400228597F0FFDFE780605E03D5618E2935AE
:1008F4009737000093870711DC538DC72254B250F9
:1009040092540259F249456117F3FFDF6700C3347B
:10091400850793F7F70F973600002383F612E3ED6C
:10092400C7ECF5B5B250225492540259F2494561CC
:1009340082809167B7C600409387373023A6F6209C
:100944000F100000973700009387870F884F938715
:10095400C19D9C43316713073730F053B70710002C
:10096400FD17918F99833A0523A6E6205D8D828039
:100974004111B7170040985F3AC6945F3247E39C31
:10098400E6FE324541018280411106C6D5379736CD
:10099400000083C66608858AB1C6930730333307DF
:1009A400F502B337F5023983CA07D98F1737000028
:1009B40013070709584B01456303F7023385E740E2
:1009C400636BF70037653D0889C637856F081305E3
:1009D4000590198D3E9517370000232DF706B24078
:1009E40041018280E5473307F502B337F5022583D9
:1009F400DE0765BF0327C50F8346B50097370000A0
:100A0400938747199C4F58439386160295829043C7
:100A1400FD1693F6F60F10C3D04350C3904710C78A
:100A2400D04750C7904B10CBD04B50CB904F10CFEA
:100A3400D04F50CF91C61307070293870702C1BF57
:100A440082808347E50193F7E70F91CB01458280CC
:100A54000145B240224492440249410182808347C5
:100A6400F501EDF7834605010347850089CA03466E
:100A740065029737000083C737FA6367F6009377F8
:100A84000701E9D7814789CA834705158346F514C9
:100A9400418BA207D58F01CB0347451583463515F6
:100AA4002207558FBA97DDD3173700000347C7F6DF
:100AB40041119316870106C622C426C24AC0E186A4
:100AC40063D506049387C71313D4570097370000E0
:100AD4009387C717BC479734000083C484F47D59B7
:100AE40003A70708637327013A899C43F5FB93879F
:100AF400818F9C438297E36DA9F43305A940269422
:100B04003334850013451400A9B7058B9387C712A6
:100B140009CB8A071384F7039307D0073354F402ED
:100B240075B786071384F7019307D003C5BF5D71BA
:100B340022DE1384C19C3AD218403ED04ACA1C5FBC
:100B440086C696C499839AC29EC026DC2ADA2ED819
:100B540032D636D442CE46CC72C876C67AC47EC269
:100B6400858B1389819CC1C31C5F973400009384D7
:100B7400640293F7F7F91CDF9737000083C78701F6
:100B840093F707048DC39387818F9C43829797378C
:100B9400000023A9A70083C7040093F7F70B1737B6
:100BA40000002309F7FE854717370000A306F7FE68
:100BB40083C7440093F7070481EF9387C19D9C4347
:100BC400D844B8D3930700FC173700002306F7FC7A
:100BD4008387640063D90700832709009C43173780
:100BE4000000230CF7FA18401C5F8583858BC9CB62
:100BF400F5571CDF010001000100010001000100A4
:100C040001000100010001000100010001000100D8
:100C140001000100010001000100010001000100C8
:100C240001000100010001000100010001000100B8
:100C340001000100010001000100010001000100A8
:100C44000100010001000100010001000100010098
:100C54000100010001000100010001000100010088
:100C64000100010001000100010001000100010078
:100C7400010001009387C19D9C4313075004B8CB26
:100C840018401C5F9183858B89CFBD571CDF9387E8
:100C9400C19D9C4323A80704854717370000230DF3
:100CA400F7EE83270900D8430583058B19C7D8437A
:100CB400759BD8C3D843799BD8C37254B640A64217
:100CC40016438643E2545255C2553256A256125721
:100CD40082577248E2485249424EB24E224F924FD6
:100CE400616173002030173700001307A7EA8347B8
:100CF4004700858B89EF83472700858B89EB8347E2
:100D04003700858BEDD797370000238707E882806B
:100D14009387819D9C4399CB944BD04B9842518FA0
:100D240098C294439C479842D98F9CC29387C19D93
:100D34009C4337C700401306C003A8CB9306200387
:100D440097350000938505E583278720C18393F7B2
:100D5400F7036369F60083278720C18393F7F703BA
:100D640063E6F60083C74500858BF9DF8280173779
:100D74000000130727E283474700858B89EB8347ED
:100D84000700858B91CB97370000238707E09737BF
:100D94000000A38307E0828083471700858BE1DF8F
:100DA400DDB79387819D9C4399CB944BD04B98425C
:100DB400518F98C294439C479842D98F9CC2938781
:100DC400C19D9C4337C700404146A8CBE5469735B3
:100DD4000000938525DC83278720C18393F7F703DD
:100DE400637DF60083278720C18393F7F70363E6C7
:100DF400F60083C74500858BF9DF82801387C19C89
:100E04001843AA87185F1583058B25EF0345150042
:100E140015051377C51F19C6B386E70083C62600D8
:100E24002300D60095C59736000083C606D793F6EF
:100E340006040945A1CAB386E70083C63600054601
:100E440093F5F6066390C504E206E18663CC0602D8
:100E54003385E7008347150003470500A20793F78E
:100E64000770D98F1397070141839376074099C67A
:100E740013670780239AE19C01458280239AF19CA1
:100E8400E5BF05458280011136C89386C19D2ECCED
:100E94008C423AC63EC498452ACE32CA93170701FB
:100EA40042C2C1831378172036853E8697360000E8
:100EB400938646CE630408041377072061CF03C7E3
:100EC400260013671700173800002306E8CC130721
:100ED4000019B8D1130700F897350000238EE5CA2E
:100EE4001387C19C0C4337080010D855719B1367B6
:100EF4002700D8D598413367070198C11377261086
:100F040005C31376061045CA03C706001367170006
:100F1400173600002300E6C817370000231007C85F
:100F240083C6460093C7F7FFC207E206E186C18382
:100F3400184163D106029396170163D7060830530C
:100F44008D4663E9C6008546173600002306D6C4DD
:100F54003453FDFE973600009386C6AA8386460165
:100F640063DD060093960701C18663D506067053B8
:100F7400894663E4C6007453FDFE14477245E24596
:100F8400F58F1CC75246C2463247A2471248056134
:100F94007300203003C7160013671700973500004D
:100FA400A38AE5BE17370000230807BE17370000E1
:100FB400231607BEA1B703C73600136717001736F9
:100FC4000000A30AE6BC89BF854617360000230546
:100FD400D6BC49B754471396060163510602B706B7
:100FE4001000FD1674D397360000938666A5944EC0
:100FF4008506173600002321D6A641B7A166D58FF2
:10100400ADBF173700001307A7BA8346B701973758
:10101400000083C737BDB69793F7F70FFD4663EA21
:10102400F6044C4B97360000A384F6B897370000BB
:1010340083C717B805473317F70097360000A38313
:10104400F6BA6D8F1DEF9736000083C6F6B9B3F676
:10105400D70213050002814733D6F500058A13F839
:10106400F70F09CE6399E60097370000A38207B50E
:10107400828081177DB705071377F70F8507E39DF6
:10108400A7FC82809387419E9843B75702009387B9
:10109400079F832607091396560063580600832684
:1010A40007091396660063440600FD17FDF382806A
:1010B40051C9AA870145C9C98D07C207C183F19BDC
:1010C400C207C18313074003636BF702138781A729
:1010D4000843138701A714436396A6021737000039
:1010E40013074792185B014525C34111C20706C681
:1010F4000545DD8D0297B240014541018280138789
:1011040041A7F9B70357650005EF03574500636925
:10111400F702B306F74021466370D6021041938666
:1011240087001D8FAA96611790C22392E60023932D
:10113400060014C12312F5002313B5002105828093
:10114400084159BF01458280828001CD938781A7E0
:1011540003A80700938701A78C430147C28763E371
:10116400B70082809443636FF50663EDA606138689
:101174008700E368C5FE03D567002166050663178B
:10118400C50003C6019905062388C1982393070067
:1011940063840703138641A71042630FF6000356C6
:1011A400670019EA83D7470014C383564700B697EC
:1011B400A1072312F700BA879843E304B7FA93868A
:1011C40041A79442E30FD7F883566700D9FA83D630
:1011D4004700035647001843A106B2962392D7004E
:0C11E40098C382803E87B6879DBF000044
:1011F000974100209381813617710020130181E00F
:1012000013054000972500209385C55F1736002001
:101210001306067E63FAC5008322050023A055004D
:1012200011059105E3EAC5FE17C501001305C59830
:10123000973500209385C57B1386818763FAC500A7
:101240008322050023A0550011059105E3EAC5FEA0
:1012500013858187976500209385452A6377B500BC
:10126000232005001105E36DB5FE9302800873A0ED
:101270000230972200209382E25893E2120073908A
:101280005230972200009382C299739012347300F7
:1012900020303D432A876373C3029377F700BDEF85
:1012A000ADE5937606FF3D8ABA960CC34CC30CC7D6
:1012B0004CC74107E36BD7FE11E28280B306C340FF
:1012C0008A069702000096966780A6002307B7005B
:1012D000A306B7002306B700A305B7002305B70090
:1012E000A304B7002304B700A303B7002303B70088
:1012F000A302B7002302B700A301B7002301B70080
:10130000A300B7002300B700828093F5F50F9396F2
:101310008500D58D93960501D58D61B793962700ED
:101320009702000096968682E78086FA9680C1171B
:101330001D8F3E96E374C3F8A5B783C7F1A8D9CB38
:1013400001119387818052C403AA470022CC26CA88
:1013500003D4A180AA844AC84EC61399040106CEBC
:1013600056C2330794009307F01FAE8933058A00F5
:101370001359090163CCE7022686938541E0EF907B
:1013800011344A942395818085476398F9009387A7
:10139000C1A8DC47850723ACF1A8F2406244D244DF
:1013A0004249B249224A924A056182803304804010
:1013B0001374F40F938A41E02286D685EF90313082
:1013C00033868440B3858A005285EF90512F3304D1
:1013D00089404DBF8280938741E019472381E70010
:1013E0007D771307B7DEA381A7002392E700194595
:1013F000A9B741111306001081451385C1AD06C67A
:101400009747002023AC07946935130600208145D7
:10141000138541C023A40180AD3D9387C1A823A8B3
:10142000070023A60700938701AA23A2070023949D
:10143000070023880700B240138581AB23A0070073
:10144000C8CB1306100281454101A1B5411106C662
:10145000792E4537370710009387C1A81307072057
:1014600098C33707000213070710D8C3514798C71E
:1014700023A6070023A80700B24085679387E70BE0
:10148000239EF1BC2392F1E0410182808547A3872E
:10149000F1A8828083C7F1A895C79747002093875A
:1014A000E78B03A8470001479747002083D7278B86
:1014B00081461376F70F6368B60089C61747002088
:1014C000231FF7888280B306E50003C60600B30633
:1014D000F80085072380C60093F7F70F05078546B8
:1014E000C9BF23A001AA83C7F1A8638F072E797112
:1014F00022D426D24AD04ECE52CC56CA62C406D688
:101500005AC85EC615449744002093842485130965
:10151000E00BC149130A2002138C01AA938AC1A8C7
:1015200017460020035686839747002083D72783DA
:101530006309F600637DF602918FC207C183636B76
:10154000F40283D5818083D7A1801384818063983E
:10155000F524B250225492540259F249624AD24AB6
:10156000424BB24B224C138501AA4561828093877E
:101570000710D9B7D44013071600131B0701338790
:10158000C60003470700135B0B016311270F137B92
:10159000FB0F33876601034707001377070F6317B5
:1015A000370D13071B001377F70FB385E60083CBC6
:1015B0000500131B0701135B0B019385ABFF93F52C
:1015C000F50F6365BA0A9388DBFF93F8F80FE3EA37
:1015D00077F70507238F71BD1388C1BD1377F70F08
:1015E0008145C2873385E60003450500050785056B
:1015F000A301A8001375F70F1317050193F5F50F55
:1016000041830508E3E015FFB385770183C8F5FF43
:101610001308D00E639C080503C8E5FF9305B00EC0
:101620006316B80403C8F1BD23A001AB83C571A93B
:10163000A9E9930510086306B80423A0B1AA328B68
:1016400003270C0093062009630FD70E63E0E6081A
:1016500093064008630ED70C63E9E604930710086D
:10166000630EF70A930720086301F70C9377FB0FCB
:10167000173700202314F76E83270C00E38207EA54
:10168000C9B505E3A38F060E03260C009306400898
:101690003A8BE307D6FA83A60A01850623AED1A8C2
:1016A00045B7AA96A38F06FEC5B7930650086307F1
:1016B000D70893061009E31BD7FA83D7470003C75F
:1016C00021BE2395F1AA2386E1AA4DB79306500ABD
:1016D0006308D70863E3E6029306100A6306D7009F
:1016E0009306400AE314D7F803C7470083C757009F
:1016F0002382E1AA2383F1AA95BF9306700A63F3BC
:10170000E6089306800AE313D7F603C7470083C7AA
:1017100057002382E1AA2388F1AA89BF8547814522
:101720000545A38BF1A8453991B7A38B01A83DBF0F
:1017300081450D454D3123A001AA0DBF83D7470038
:101740002392F1AA25B703C74700A386E1AA03C7DE
:10175000570083C767002387E1AAA387F1AA39B797
:1017600083C7470003254C0113869BFF938511BE59
:101770002382F1AAEF90A17483274C01BE9BA38C16
:101780000BFEEDB503C747002382E1AA03C757004C
:1017900083D76700A383E1AA2394F1AAC1BD48407F
:1017A0002E9563FFF500B385B740CD4763C0B70200
:1017B00093F5F50F3528835724002394F18051BB0E
:1017C000930700208D8F51476358F700D1450D20B6
:1017D00083570400D107D5B7B305B04093F5F50F93
:1017E000012823940180B5B3138501AA82808280E9
:1017F00041112E86AA85175500201305E57D06C6E2
:10180000EF106035B2408547238CF186410182801C
:10181000B717004003C777051377E70FA38BE704DB
:10182000130700F8A38DE7043D47238CE704130753
:101830005003A38CE704828041112A83014E930E4A
:10184000407E130F0019930F400663EB6E0A930856
:10185000001913034006B3781503854E0D4FA14FB1
:10186000337365020D891335150063E5BE0C13084B
:10187000F6FF794672984208135808013307C702E9
:1018800013D61700BE0732976146B3F6C602130699
:101890008070B386C6023697A166F58F42075D8FCA
:1018A000B717004083C6F70293F60608A307D100D6
:1018B0000346F10083C6F70293F60608E394C6FEDA
:1018C0008346F10093F6F60FF1DE93067005238050
:1018D000D704930680FA2380D70423AA070383C67C
:1018E000170393E60608A388D702D8DB03C71703BC
:1018F00013670704A388E70223800704410182805D
:101900007D133368E3039308E016630E0800336821
:10191000F3039308D016630808009378330093B854
:1019200018009388D81633081E01131E0801135E91
:101930000E0121BF6393E503054863860800014853
:10194000630303002A8871087298FD15131E0801AD
:10195000C205135E0E01C18109BF13F8150063F4BF
:10196000BF007908D5B713381800E5BF914763EE7B
:10197000B70217B701001307A78C8A05BA959C41D7
:10198000BA978287B717004003A7470B1345F5FFA7
:10199000698F23AAE70A03A7070B698F23A8E70A21
:1019A00003A7070A798D23A0A70A8280B7170040F2
:1019B00083A6470B1347F5FFF98E23AAD70A83A600
:1019C000070B558D23A8A70A83A6070A758F23A0A6
:1019D000E70A8280B717004003A7470B498F23AA65
:1019E000E70A03A7070B1345F5FF45BFB7170040EC
:1019F00083A6470B1347F5FF758F23AAE70A03A7B2
:101A0000070A598D4DB7B717004003A7470B498FF9
:101A1000EDB7B717004003D58700420541819377A2
:101A2000050491EB9377F5013755E801130505801F
:101A30003345F50282809377050C13070004639702
:101A4000E7009377F50137459C1CCDB72165130559
:101A500005D0828037E700E01C435443A183E206AF
:101A6000D58F1CC1FD572320F7182322F718828039
:101A700013178500B7E700E023A0E710618123A2D8
:101A8000A7108280B7F700E0C8439C478280814757
:101A900037370040A14663C4C700328582800345C2
:101AA000B740E38EA6FE3385F500034505008507A4
:101AB0002304A740CDB7411122C406C62A84913F12
:101AC0002947B307E502B2408D83B3D7870222448A
:101AD0009507B3D7E70237370040C207C183231603
:101AE000F74041018280716541111305052006C64A
:101AF000D937B7370040130770F82381E7400D4707
:101B0000A381E74013070004A380E740054723872C
:101B1000E740B24041018280B78700402380070040
:101B20001307C0FC2386E700A386E70003D7C1871D
:101B30002398E70003D70188239AE70003D7418859
:101B4000239CE70003D78188239EE70089462381F1
:101B5000D70249472383E7022385E7022387E70269
:101B60002389D702A3810700130790022380E7008F
:101B7000B716004003D7A6011367070C239DE600A4
:101B80007D572383E700130710F8A380E7001D4764
:101B90002381E7008280B78700402382A70203C722
:101BA00067021377C70F2383E7028280B78700405D
:101BB0002384A70203C7A7021377C70F2385E70271
:101BC0008280B78700402386A70203C7E702137706
:101BD000C70F2387E7028280B78700402388A702C8
:101BE00003C727031377C70F2389E7028280CC41FD
:101BF000411106C6328503C6150083C505002206BD
:101C00004D8E42068D654186138875A2630C060FC2
:101C10006348C804138845A26306060B634AC800DC
:101C2000938535A26309B60623900600294679A05C
:101C3000138855A26308060B938565A2E316B6FECA
:101C4000C1451D4663ECE5064546198E63F3C700A2
:101C50003E862390C60097A501009385A56089A8BC
:101C6000138895A26300060F634E060B1388A5A286
:101C7000630A060F938505A5E318B6FA99451D4634
:101C800063EEE502198E63F3C7003E862390C6001B
:101C90009385818131A89D451D4663E1E50221467A
:101CA000198E63F3C7003E862390C6009385C188D2
:101CB000BA9597200020E78060260146B240328521
:101CC00041018280AD451D46E3EAE5FE3146198EAD
:101CD00063F3C7003E862390C60097A50100938555
:101CE000255CF9B7B1451D46E3EAE5FC3546198E9A
:101CF00063F3C7003E862390C60097A50100938535
:101D0000255B7DB7C1451D46E3EAE5FA4546198ED8
:101D100063F3C7003E862390C60097A50100938514
:101D2000A55579B7C1451D46E3EAE5F84546198E44
:101D300063F3C7003E862390C60097A501009385F4
:101D40002558BDB7C1451D46E3EAE5F64546198E5F
:101D500063F3C7003E862390C60097A501009385D4
:101D6000E552B9B7B5451D46E3EAE5F43946198EA3
:101D700063F3C7003E862390C60097A501009385B4
:101D8000654D3DB797360020938686D94146CD45AF
:101D9000173500201305C5C56F7060774111939604
:101DA0002500AA852D4506C697200020E780E0E1A2
:101DB000B240014541018280411122C426C24AC07D
:101DC0002A842E89B284AA859306002001462545DF
:101DD00006C697200020E78040DF9316290026865C
:101DE000A285294597200020E78020DEB2402244CA
:101DF00092440249014541018280011122CC06CE64
:101E00003714004026CA4AC84EC652C483447405DB
:101E1000034AB4058349840503499405D53A8347A9
:101E2000A40593F4F40F137AFA0F93E71700230D28
:101E3000F40493F9F90F1379F90FB717004003C7AA
:101E4000A705058B6DFF03D5C705A38D4705238C1B
:101E50003705A38C2705A38B9704F2406244D24434
:101E60004249B249224A0561828041119397050196
:101E700022C406C6C1872E8463DD0700EF104042EE
:101E800019C1EF10403B2165218DB2402244410130
:101E9000828093F7150013C51500E5FB9397250184
:101EA00063DF0700EF20015D37F60200130606E04E
:101EB000896503C54189EF10F00E0965F1B7939765
:101EC00015010145E3D307FC17A5010013050545DE
:101ED000EF90E11B13060064916503C54189EF1083
:101EE000700C116555B71D71494697A50100938582
:101EF000653E17B501001305E58986CEEF104074E5
:101F000001E917A501001305253EEF90411801A036
:101F100037F700E0F9575CC7FD571CCB8566B7E77C
:101F200000E023A0D7101306701010C3B843414639
:101F3000B0C323A0D718B8C3010001001306C00323
:101F400081454808EF10A069973700209387C7683C
:101F50003ECA896793870780231CF100ED47A301E0
:101F6000F1029307A0102312F102D1472303F102DB
:101F7000A167938707E03ECE97070000938747E26B
:101F8000BEC497070000938767E3BEC6B547230822
:101F9000F102B7F50700970700009387E7AE3EDA36
:101FA000814697070000938787E57000E105194592
:101FB0003EDE97200020E78040C1580881479946BF
:101FC00070003E960346060085070507A30AC70072
:101FD000E398D7FED24791C70357810185676373A2
:101FE000F70001A04808EF105035AA8501C917A5D0
:101FF00001001305A530EF80F17701A0F6402561BF
:102000008280411117050000130565E606C622C44B
:10201000EF10302F138441892300A40029280345A1
:1020200004002244B24037F60200130606E0896538
:1020300041016F102077411106C6B7170040130702
:1020400070052380E704130780FA2380E70403C7A1
:10205000F7021305407E814613677700A387E702E6
:10206000238007040147814705468545EFF0CFFCF3
:10207000B240014541016F1030549387C1E223AE55
:10208000F1869387C1EE23A0F1889387C1F64111B1
:1020900023A2F1889387C1FE06C623A4F188AD3C34
:1020A000B240B7E700E03707400023A0E710410146
:1020B0008280938701889C432380A7040545E1BC67
:1020C00081471386018813F7F70F6363A700E1B414
:1020D00018423E9783460700850793C6F6FF230004
:1020E000D704D5B781471386418813F7F70F636389
:1020F000A7006DBC18423E9783460700850793C62C
:10210000F6FF2300D704D5B781471386818813F7DC
:10211000F70F6363A70075B418423E978346070024
:10212000850793C6F6FF2300D704D5B781471386EA
:10213000C18713F7F70F6363A70079BC18423E9776
:1021400083460704850793C6F6FF2300D708D5B753
:10215000B787004003C767001377F70F9376270010
:1021600063840676011106CE22CC26CA4AC84EC622
:1021700052C403C777009306000313770703630B6A
:10218000D70203C7770091461377F7036300D7267A
:1021900063EBE6088546630DD71A63030718894683
:1021A0006308D71C8D466304D720B78700400947D2
:1021B0002383E7003787004083477700E207E18702
:1021C00063D4073A930720FC2301F7029386C18763
:1021D00080428349740083476400A209B3E9F9008F
:1021E0002391318B834714002380F18A0349040033
:1021F000137709066300072813770904631E072075
:1022000013770902630A0720F91793F7F70F254799
:102210006361F73417A70100130787108A07BA977D
:102220009C43BA978287930620026303D71663E91B
:10223000E60293060002630CD70493061002E3162D
:10224000D7F603C76702134707042383E70203C7D0
:1022500067021377C70F136727002383E702B1B71D
:10226000930630026305D71693064002E31FD7F2A8
:1022700003C72703134707042389E70203C727037C
:102280001377C70F136727002389E70239BF03C7F6
:10229000018A9546630BD7069947630AF7008D4775
:1022A000E305F7F0B78700402380070285A89387EE
:1022B000218A03D4070013070004BE8463748700D7
:1022C000130400049387C1871389818A88434204D9
:1022D0008325090041802286EF80713E83D7040068
:1022E0009379F40F818F2391F18A832709003E941B
:1022F00023A4818AB78700402380370303C72702BE
:10230000134707042381E7024DB503C7370083C68F
:10231000218A13770708558FA381E7000947DDB7A6
:1023200083C7870003C7018AA547E310F7E89387AF
:10233000C1879C4317A501001305050D83C707003E
:1023400089E717A501001305A50DEF805154B1BD14
:1023500003C7770013770704E30907E403C767029D
:10236000134707082383E70203C58700913B35BD68
:1023700003C7770013770704E30907E203C7A7023F
:10238000134707082385E70203C58700A13B31BD3A
:1023900003C7A702134707042385E70203C7A70261
:1023A0001377C70F136727002385E702FDBB03C719
:1023B000770013770704E30A07DE03C7E702134732
:1023C00007082387E70203C587003D3BF9BB03C726
:1023D000E702134707042387E70203C7E7021377DF
:1023E000C70F136727002387E702C1B303C777002E
:1023F00013770704E30B07DA03C72703134707081C
:102400002389E70203C58700153345B39387C1E2EB
:1024100083C73700A38EF188620913598941814629
:102420006352090283D7218A930600043E8763F42E
:10243000F6001307000442074183998F9376F70F44
:102440002391F18AB78700402380D702130700FC4D
:1024500029A29387C1E283C72700A38FF1886DBFAC
:102460009387D18983C707002386F1E275B79387E5
:10247000F189CDBF2D47636EF70C17A70100130735
:10248000A7EC8A07BA979C43BA97828783473400A0
:10249000034724009946A207D98F13D78700630604
:1024A000D71663EFE60089466308D70C0D46630B29
:1024B000C71085476302F7049304F00F8147A9A072
:1024C000930710026304F70C93072002630CF70CC8
:1024D0009D47E313F7FE1306000297A501009385BD
:1024E000C5EC1725002013058564EF80511D972743
:1024F00000209387A76369A097A70100938707ED42
:1025000023A4F18A8144C947C207C18363F4370118
:102510002391F18A9387218A03D607009307000449
:1025200063F4C70013060004138A818A9319060115
:1025300083250A0093D909014E862285EF80311840
:1025400003260A004E9623A4C18A9307F00FE39551
:10255000F4ECB78700401307F0FC2381E702B7874C
:10256000004009472383E700F2406244D2444249D5
:10257000B249224A0561828097A701009387C7E28A
:1025800023A4F18A814493072002BDBF83474400FE
:1025900085F797A70100938747E223A4F18A814436
:1025A000A5479DB783474400B5EB97A701009387E4
:1025B000A7DC23A4F18A8547238FF1888144930700
:1025C000F00299B793F7F70F0547638EE7008DC7C1
:1025D000E394D7EE97A70100938787E123A4F18ABC
:1025E0008144B14715B797A70100938767DF23A4FC
:1025F000F18A8144B94709BF97A701009387C7565D
:1026000023A4F18A8144914701B797A701009387DA
:10261000E7DE23A4F18A8144A947FDB581449307ED
:10262000F00FDDB5834724002391F18AF5B383C70A
:10263000C1892300F40003D7218A8547E3FEE7DC44
:102640008547DDB783472400238EF188F1B31377E4
:10265000F90189476310F70A834744008D46638276
:10266000D70663EEF6008546638FD706E393E7EE61
:10267000378700408347A70293F7370795A01307D2
:1026800020086387E704130730086381E702130714
:102690001008E390E7EC378700408347670293F721
:1026A000C70B93E727002303F702BDB3378700402A
:1026B0008347E70293F7C70B93E727002307F70247
:1026C000A1BB378700408347E70293F73707FDB781
:1026D000378700408347A70293F7C70B93E727008C
:1026E0002305F70215BB378700408347670293F73E
:1026F000370755BFE31F07E483473400034724002F
:10270000A207D98F0547E399E7D083C7418A93F79A
:10271000E70F2382F18A09B31377F901894763141C
:10272000F70A8347540083464400A207D58F8D469D
:102730006380D70663E0F6028546638DD706E39A89
:10274000E7E0378700408347A70293F7370793E70F
:10275000C70079B7130720086385E704130730081B
:10276000638FE70013071008E395E7DE3787004023
:102770008347670293F7C70B93E737002DB7378777
:1027800000408347E70293F7C70B93E737003DB755
:10279000378700408347E70293F7370793E7C7007F
:1027A00031BF378700408347A70293F7C70B93E7F2
:1027B00037003DB7378700408347670293F73707F5
:1027C00093E7C700CDB5E31607D883473400034726
:1027D0002400A207D98F0547E390E7C483C7418A45
:1027E00093E717003DB723000400B1B59375F901D5
:1027F0008947639FF50A23000400984283475700E6
:1028000003464700A207D18F0D46638BC70463615F
:10281000F60205466384C7086386B7069C42A38018
:10282000070003D7218A8547E3F8E7BE8947EDBB58
:10283000930520086383B70493053008638BB700C2
:1028400093051008E39CB7FCB787004083C7670275
:1028500029A0B787004083C7E70293F7370401A890
:10286000B787004083C7E702314693F7C708E3976D
:10287000C7FA85472300F70055B7B787004083C7DD
:10288000A702E1BFB787004083C7A702B14593F70E
:10289000C708E395B7F82300C70049B7378600405B
:1028A00003466602B1451376C608E319B6F6D9B7F2
:1028B000B5F52300040003C7418A19C398425DBFE0
:1028C0009C422380070099BF9376170085C2094771
:1028D000A38107002381E7022383E7022385E70220
:1028E0002387E70205472383E7008280937647002A
:1028F000FDDA03C757001147FDB7797126D206D616
:1029000022D44AD04ECE52CC03C88500A1441378BD
:1029100008026311080683C8050009482E84814413
:10292000639A080503A84500AA89328A83471800DC
:10293000034808003689A207B3E70701C2070D68FC
:10294000C187130828906380070581440357A400BA
:102950009727002083D76725631EF7009387C18AD6
:102960009C4389CB0D473AC22316210152C44C0027
:102970004E858297B2502254268502599254F249CC
:10298000624A456182808547EF40507CAA845DFDA4
:102990009387C18A984355DB83471A0083460A0010
:1029A0004C00A207D58FB337F00085073EC24E8595
:1029B000029769BF011117A501001305E5A722CCF5
:1029C00026CA2EC606CEB28436C4EF80416CB2450C
:1029D000214483C78500C18B9DEF03C6050089474D
:1029E0000144A2466319F602D84183471700034702
:1029F0000700A207D98FC2070D67C1871307279069
:102A0000639BE700CC452390C600268509469710B6
:102A10000020E780A0502285F2406244D244056144
:102A2000828041677917630CE502411122C406C612
:102A300085472A84639AF50022852244B240938513
:102A4000C10641016F60903789476396F50085455F
:102A5000EF80105575D1B2402244410182808280BE
:102A6000411126C2AA8441659385C1067D1506C61B
:102A700022C4EF60B034170500001305C5FAEF80DB
:102A8000B049972600209386A612414699451725FE
:102A900000201305E50BEF6090272A8419C517A5C0
:102AA00001001305259AEF80815E2285B240224401
:102AB00023A6918A92444101828041119385C106E7
:102AC00006C6EF407065B2407D1513351500410113
:102AD0008280411122C42E849385C10626C206C677
:102AE000AA84EF407063058915C19727002093875A
:102AF000270683D7A702A285B2402310F400224400
:102B000026859244014641016F50703BB2402244F9
:102B100092444945410182808357250003550500B1
:102B20003385A740420541818280AA8705C21307E9
:102B3000F6FFB376C700054599EA23A00700CCC38A
:102B40002394C7002395E7000145828005458280D4
:102B50002320050082802A8725C1835605008357DC
:102B6000A500B697835625008507958FC207C183B8
:102B7000BE866373F600B286C206C1820D4595CF4C
:102B800081471396070141826364D6000145828024
:102B90003386F500034806000355A70003562700B7
:102BA0008507718D50432A9623000601035627009E
:102BB00005062311C700F1B711458280AA87114588
:102BC000B1CF29CE83D6070003D72700158F8356B0
:102BD0000600420741836373D700BA86C206C182EA
:102BE00009450DCF01476366D7002310D600014584
:102BF000828003D5070003D8A70033780501C843B6
:102C00004295034805003385E500050723000501CB
:102C100003D5070005052390A700F1B78280411175
:102C20001305800406C697100020E78060C9371797
:102C300000408327870A8D451305002093E707206E
:102C40002324F70AEFE09FD2EFE0FFE917A5010088
:102C5000130545B4EF80A143EFF0EFA8EFF06FBA92
:102C6000EF60E14E41219921EFF02FC19710002034
:102C7000E78020E12A86B305B04017A501001305BF
:102C8000658C6F80212F9C410947638FE7000D47BA
:102C90006382E70205476393E704AA8517A501004D
:102CA0001305C5806F80012DAA8517A501001305A6
:102CB0002582CDBF411122C42E8483D5850017A55E
:102CC00001001305258306C6EF80C12A83458400D1
:102CD00048402244B24041016FE0CFFB8280411165
:102CE0009397050122C406C626C24AC0C1872E8416
:102CF00063DF070003C55182652311C12D2B2165B8
:102D0000218DB2402244924402494101828093F7CE
:102D1000150091CF17260020130646EA9385C18B34
:102D200003C55182EF50D16D13451400D9BF93F7FD
:102D3000850099CF83C751821307400681465146CB
:102D4000A14503D5018DEF5011651345840055BF92
:102D500093F705010145D5D7938701839C438544AB
:102D60006389970081C70D49637DF91013450401FC
:102D700049BF03D5018D913303D7018D19E9C1678F
:102D8000F917E315F7FE174500201305E524C933AD
:102D9000F1BF3A85EF10A0637515239CA18C1745F0
:102DA0000020130565238D3B83D7818D6364F50A6D
:102DB00017450020130545228533AA851795010084
:102DC0001305456CEF80011B1386818D974500200C
:102DD000938505421745002013050520C53313755B
:102DE000F50F23A2018C59F103D6818D014781464D
:102DF000ED4503D5018D2395C18CEF40E06F23A6EF
:102E0000A18C630C050C03D6A18C974500209385FB
:102E1000253E97100020E78060109385818C014645
:102E200003D5018D7D31AA8539C51795010013059C
:102E30006566EF8021148D4723A8F182ED45138547
:102E4000818CEF4030030946C14503C55182EF0034
:102E5000701529BF9384418C9840A947E3E6E7F6B3
:102E60001146C14503C55182EF00D0139C40850730
:102E700023A2F18CE5BD854723A8F182239C018C18
:102E8000D9B703D6818D01478146ED4503D5018D24
:102E90002395C18CEF40406623A6A18C1DCD03D69F
:102EA000A18C974500209385A53497100020E780DA
:102EB000E0069385818C014603D5018D1939AA85D9
:102EC00011C9179501001305A55DEF80A10A23A87C
:102ED0002183ADB723A8918255B7894723A8F182F2
:102EE0009DB783D7018D6390A7022399B18C239A54
:102EF000C18C239BD18C2E8617950100130505618B
:102F0000BE856F802107179501001305A5616F80AD
:102F1000011803574500011106CE83D7018D6315B3
:102F2000F702C167F91723A8F18C23AA018C854702
:102F30001306F100854513055030A307F100EF504B
:102F40001179F24005618280179501001305055340
:102F5000EF80E113FDB77D15954763E2A712179740
:102F60000100130727500A053A951C41411122C45C
:102F700006C6BA972E848287179501001305055E51
:102F80002244B24041016F80811003C72500994758
:102F90006314F7002E85B53F179501001305055DF5
:102FA000C5B703C7250095476317F70CC16703D75B
:102FB000018DF91703D5A500630FF700EF60E11647
:102FC000179501001305855BEF80610C17950100D3
:102FD0001305455D75B72398A18C83D7E500096675
:102FE000130606902399F18C83D7050103C55182FE
:102FF000239AF18C83D72501A145239BF18CEF0007
:10300000607A0356E4008355A40017950100130568
:103010002558EF7031765DBF1795010013054559AE
:1030200085B783C5250091476397F5001795010083
:1030300013058559B1B79947639FF5002285D13DA6
:1030400083456400179501001305C5592244B24019
:1030500041016F7031729547639AF5008347140000
:10306000F1F7179501001305A55919BF1795010030
:1030700013058559E1BFB24022444101828082801C
:103080000111680006CEEFE0FF9C83C7818789CBE2
:103090000946C14503C55182EF00C070238C0186EB
:1030A0003245EFE0FF9CF24005618280411113063A
:1030B0000020974500209385E5F217450020130571
:1030C000651206C6EFF07FA6B240130600209745B2
:1030D0000020938565D0174500201305E5EF4101D9
:1030E0006FF0BFA4011117050000130585BF06CEC0
:1030F00022CC26CAEF00F0209384518299470544E0
:103100002380A4002315F100130691009307803E4D
:103110008545130550302316F100A3048100EF50BC
:10312000115B172600201306A6ABD9451305703096
:10313000EF50F159138681829D4513056030EF50A1
:1031400011591306A100894513051031EF5031586C
:103150007000894513052031EF5071571726002064
:10316000130686A6D5450145EF30B0749305000AD5
:103170000D45EF20E03F9305000A1145EF20403F49
:103180007000914513057040A30381002304810062
:10319000A304810002C623050100EF409128130615
:1031A0007100854513050040EF40B127300085458B
:1031B00013051040EF40F1261306A10085451305C5
:1031C0002040EF401126130691008545130550401D
:1031D000EF4031257D55EF30B07B7D55EF60E03A13
:1031E000EFE05FBA17050000130525AAEFF05F872F
:1031F000C1671387018DF9171CC3232207001385AC
:10320000418BEF30313C03C5040085454929F2402C
:103210006244D2440561828023AC05FE1C4191E7E3
:10322000010001000CC18280BA8703A787FF6DFFF0
:1032300023ACB7FE82801DC18346E5FF1307F00F64
:103240009147639EE600411106C697100020E78073
:103250000070B24081473E854101828095473E859E
:10326000828001E9014582800145B240224441014A
:103270008280411122C42A84210542059305D0048D
:10328000418106C697100020E780C06271DDFD57BE
:1032900023200500231285002303F5002105F1B743
:1032A0001387C18D1C43411122C426C24AC006C6E1
:1032B00001440149BA8489E7A165912D0DC401A893
:1032C00003C7E7FF6318A7021DC8A165C92E984070
:1032D000832784FF6317E40223AEF18CFD57232C70
:1032E00004FE230FF4FE2285B24022449244024998
:1032F0004101828011E03E8983A787FF6DBF3E8434
:10330000E5BF232CF9FED9BFA9C9411122C406C6C5
:103310002A849747002083C7B7F22E856368F4009C
:10332000193F0D45B24022444101828083A785FFA9
:1033300099E703C7E5FF9307F00F6305F700E53D45
:103340001545CDB7238F85FE1385C18DF1352285B7
:103350002244B240A165410199A61545828023AE61
:10336000018C82809387018F9C4399E33E85828004
:1033700003D727006316B70003C70700E308A7FEBB
:10338000DC47E5B74111939705014AC006C622C440
:1033900026C2C1872E8963DE0700193711C1613D3E
:1033A00021653345A900B2402244924402494101BB
:1033B0008280AA860145E5D901443D47B35789403B
:1033C000858B95CB9387818E8443BD4791E281475E
:1033D000A2978E070545BE94331585001314050189
:1033E0009C40C8404180829723A0040023A204008F
:1033F000334524014DBF0504E312E4FC0144CDBF75
:1034000097470020938707E09C53411122C406C6CA
:103410001384418395C7829723AAA1820840B747A6
:1034200003009387D73F3305F502B7A7260093879C
:1034300037ECB24022443E9523AAA182410182800A
:10344000974700209387C7DF18409C4BBA9723AA61
:10345000F182E9B79387018E90439746002083C697
:1034600036DE814713F7F70F6361D70A174700204D
:103470000347B7F2914763E1E70A9747002083C704
:1034800067F6918BD1EB0111680006CE22CC26CADB
:10349000EFB070737D576308E50EB2471744002004
:1034A000034474D76374F40C97470020938747D97B
:1034B000C4479747002083C727D66386E406858BD9
:1034C000A9CFD147B384F4026372940A9710002005
:1034D000E78040CAB24763F3F400A6871744002090
:1034E000034474D3818F3384A700974700209387C8
:1034F00067D18387470163CE0702B707C0A8636A15
:10350000F402B70740573E942DA085071397170084
:1035100032970357E7FF39D7828093079002B3842D
:10352000F402858055B7E207E18763D607043304C8
:10353000854003D5618E97100020E780209C19E01C
:103540003704C0A8974700209387C7CBDC53228558
:10355000829709ED974700209387C7E39C4F99C74F
:10356000EF00712CEF10C104EF005120F2406244D3
:10357000D24405618280E37C85FAB707C0A8338412
:1035800087402A947DB797470020938767CBDC4715
:10359000E38EA7FC174700201307C7C683464701E1
:1035A000BA84858A9DC65144338487029747002098
:1035B00083C777C6E3FC87FA97100020E78080BBBB
:1035C0009747002083C737C51D8C2A948387440101
:1035D0001DB713049002338487020580C1BF2A9669
:1035E00009E582800505A30FB5FEE31DC5FED5BF25
:1035F00081473307F5000307070019E33E85828002
:103600008507C5BF01112E8626CAAA841315060197
:103610009305F004418122CC06CE32C697100020DB
:10362000E78040292A8419C53246A68597100020D4
:10363000E780C08E2285F2406244D24405618280D8
:1036400081476314F600054582803307F50085073E
:10365000B386F5000347070083C6F6FFE383E6FE63
:10366000014582809307F6FFBE952A966313C50035
:103670008280FD1583C715000505A30FF5FEFDB774
:10368000814711E9014582803307F50003470700B0
:10369000E31AB7FE8507E319F6FE054582809747D2
:1036A000002083C7F7B9637FF5001387018E931756
:1036B000150008433E9583570500DD8D2310B500A6
:1036C000014582800D458280FD570111174700207A
:1036D000232EF7B69387018F22CC804326CA4AC88F
:1036E0004EC652C406CE56C22A898144974900204C
:1036F000938949B1174A0020130A8AB418448147B4
:103700006374E900B307274103A749021CC409CB2E
:103710000327CA0063F6E700174700202328F7B203
:10372000A1E3835524009DE55C44A1E423A8F18E28
:10373000832AC400228597100020E7804021568408
:1037400055FCF2406244D2444249B249224A924A6C
:10375000056182800345040099375C4081CB1CC41D
:1037600083572400F1D3A2844044D9BF1C44CDDF49
:10377000C5BFDCC475BF9747002083C777AC6371B2
:10378000F5021387018E93171500084393C5F5FFC3
:103790003E9583570500FD8D2310B50001458280BD
:1037A0000D4582809747002083C797A96364F50081
:1037B00001458280411122C426C24AC006C62A841D
:1037C0002E89B284453601C504C505452DA09365F3
:1037D00004F0C205C181414597100020E780800DAB
:1037E0000DE1974700209387E7A19C5B81C7A285E5
:1037F000114582970145B240224492440249410159
:1038000082809387018F9C438DE323A8A18E8547F7
:103810002326050004C52311250123008500A300EC
:10382000F5002322050055B7BA87D84775FFC8C7EA
:10383000F9BF45C539715AD0138B818E22DC26DA47
:103840004AD84ED652D45ECE66CA6AC86EC606DE66
:1038500056D262CC3689328AAE89AA8401445A8D06
:10386000B94D854BF94C03270B00131C3400937A98
:10387000F40F62971C43A9EF13B5FA001345150026
:10388000B3978B0063F65D01930714FFB397FB00BA
:1038900093950701C181528631371DC983270D00D9
:1038A0000145E29784C323A2370163040900230082
:1038B0005901F2506254D2544259B259225A925A82
:1038C000025BF24B624CD24C424DB24D2161828080
:1038D0000504E31A94F92145E9BF094582804111A5
:1038E00022C426C24AC006C6AA842E8932845D3DFF
:1038F000CA852685EFF01FA709C940C10145B2401E
:10390000224492440249410182802145CDBF4111A8
:1039100022C426C24AC006C6AA842E89EFF09FA4FC
:103920002A8419C123110500CA852685A9350145B8
:1039300011E01945B240224492440249410182807B
:103940007547636BA7041387818E1443411126C208
:1039500093143500A696944222C406C6AA873A84D8
:10396000094595C613B5F70039471345150063732C
:10397000F700C5178545B395F500C205C181413FE4
:103980001C400145A69723A0070023A20700B240D0
:10399000224492444101828009458280411106C639
:1039A000EFF05F9C09C50845B240410182800145A6
:1039B000E5BFF54763EDA7049387818E9C431317FA
:1039C0003500BA979843894721C7011126CA06CE08
:1039D0009334F50022CCB94793C4140063F3A700D5
:1039E000451505443314A400420441802EC62685A3
:1039F000A2856D378947324609C5A28526855D3384
:103A00008147F2406244D2443E8505618280894705
:103A10003E858280411106C623A6A18E0295B24042
:103A20009747002023A8A78201454101828099473A
:103A300063E9B7008A059747002093876782BE95A0
:103A400088C18280411106C622C426C2EF50217768
:103A50007146814517450020130585804936173486
:103A600000201304E47D1306000222858145853E73
:103A700023A8018E23A6018E9737002083C7477A9B
:103A800013D527008D8B3E958D473305F502994759
:103A9000930510109384418F35051375F50F23019D
:103AA000A4003305F5021305050F97100020E780E9
:103AB00060E023A4A18E834724001305050F88C06E
:103AC0008A073E9523A0A18EEFF07F89A126834728
:103AD00014009840170600001306068B93962700E3
:103AE000BA9690C293862700850793F7F70FA30035
:103AF000D400B24022448A07BA9790C3924441014D
:103B000082809737002083C7B77317370020034799
:103B1000477363F1E7021387418F184393861700B9
:103B200017360020A30ED67093962700369708C349
:103B30003E8582809307F00FE5BF1C416387071421
:103B400041777D8FB706002089476311D71403574B
:103B50004500630D0712411122C419462A849305BA
:103B6000F00F590506C6EFF0BFB105478D47630951
:103B7000E5101306C003814517350020130585683D
:103B8000EFF0FFA51306C003A2851735002013052B
:103B9000656797000020E7806038173700200357DB
:103BA0002767973700209387E76519E713070020F9
:103BB00097360020239EE664173700200347676589
:103BC00011E70547973600202385E6641737002064
:103BD0000347376411E76D4797360020A38BE662F1
:103BE000173700200347076311E715479736002072
:103BF0002382E662173700200347D76111E70547A4
:103C000097360020A388E660173700200347D76067
:103C100019E703C7070197360020A38FE65E173721
:103C200000200347475F11E7514797360020238460
:103C3000E65E173700200347C75E19E713078002C7
:103C400097360020238FE65C173700200347B75CC8
:103C500019E71307D00297360020A38EE65A0347D0
:103C6000D40111E7094797360020A38BE65A9C57E9
:103C700091C78297973700202397A75CE13381474C
:103C8000B24022443E854101828089473E85828040
:103C9000011122CC06CE2A842EC6EFF06FF6B24573
:103CA000F240818D33A5A502229562441375F50F6C
:103CB00005618280011122CC06CE2A842EC6EFF047
:103CC0002FF4B245F240818D33A5A50222956244BE
:103CD0004205418105618280011122CC06CE2A84F1
:103CE0002EC6EFF0EFF1B245F240818D33B5A5025B
:103CF0002295624405618280973700209387875020
:103D0000985725C3411122C426C206C6BE84029715
:103D100017370020035727532A8441C7BA87637394
:103D2000A700AA87C207C183BA866373E400A2868C
:103D3000C206C182958F51476355F706DC5491C383
:103D40008297854717370020230AF764EF008172B6
:103D5000973700202399874EB24022449244410174
:103D600082809737002083C767639DE797370020DD
:103D70009387476283C79700850793F7F70F173735
:103D80000020A30DF760A18B9DC785471737002042
:103D90002316F7606F00C17397370020A380076078
:103DA000D5BF9737002083C7675FDDD72244B24075
:103DB00092444101C5B7828097370020938787449A
:103DC000D857011122CC06CE3E8401C72AC60297DD
:103DD000324509CD23ACA18E170500201305053B04
:103DE0001539F24062440145056182808307440130
:103DF00063DD07009737002023A0074697070020C0
:103E00009387673323ACF18EC1BF97070020938758
:103E10006736CDBF011122CC173400201304843E35
:103E2000084406CE26CA19E50545F2406244D2444C
:103E3000056182805C58EDDB185C7DD7700085459C
:103E400082971844B247E301F7FE8357C400173541
:103E500000200345053C9305E0043305F502973443
:103E600000209384E43D4205418197100020E780C3
:103E700060A4173700202323A73E5DD59737002085
:103E800083D70739173600200346A6383306F602D3
:103E90009305F00FEFF0AFF4D04C084497370020B3
:103EA00083D7073708C29735002083C58536B38589
:103EB000F5021C5C89818297C84C97100020E7802E
:103EC00000A901459737002023AA0738B9BF41113F
:103ED00022C4173400201304E4321C4426C206C650
:103EE000973400209384C435ADCB1C5CBDC7DC4C3B
:103EF0008DE78357C40017350020034585319305AE
:103F0000E0043305F5024205418197100020E78067
:103F1000609A9737002023A3A734C84C1DCD97374C
:103F2000002083D7E72E173600200346862E33065F
:103F3000F6029305F00FEFF08FEAD04C0844973764
:103F4000002083D7E72C08C29735002083C5652C55
:103F5000B385F5021C5C89818297C84C09C997100A
:103F60000020E780C09E9737002023A9072EB2408B
:103F700022449244014541018280011126CA9734AE
:103F800000209384E42B22CCC04C4EC652C456C2AF
:103F900006CE4AC8AA8AAE89328A31EC1739002087
:103FA000130949268327890099E3A94471A08357FF
:103FB000C900173500200345C5259305E0043305E6
:103FC000F5024205418197100020E780A08E2A84E7
:103FD00041C583274903C9C39735002083C565239D
:103FE000173700200357C722B385E5022A86032529
:103FF00089008981829791451307A005898193974C
:104000002500A29783C607006395E60483C61700C0
:10401000639E560385058A054E86A29552859700B4
:104020000020E780A0EFDC4C814463878700228575
:1040300097100020E780A091F24062442685424913
:10404000D244B249224A924A0561828083D5270030
:1040500075B7DC4CE38B87F4228597100020E7804E
:10406000008FA1B7973700209387C719984729CBAE
:104070009C5FB9C785466315D504411122C4173426
:1040800000201304E41B504C06C61DC697360020C2
:1040900083D606189735002083C5A517B385D502AA
:1040A0003A8589818297484C97100020E780208AC2
:1040B0009737002023A4071AB2402244410182808E
:1040C0008280973700209387A717D84F011122CC01
:1040D00026CA4AC852C406CE4EC62A89AE84328445
:1040E0003E8A35E7973900209389C91183D7C900E3
:1040F000173500200345E5119305E0043305F5026B
:104100004205418197000020E780C07A9737002060
:1041100023A6A7142A8611E92945F2406244D24415
:104120004249B249224A0561828003A5890005C13E
:1041300083A7490389CF9735002083C5850D17379D
:1041400000200357E70CB385E50289818297032598
:10415000CA0191461308A005FD5593D72600C20752
:10416000C183139727002A9703460700631B0603A2
:10417000834817000356270063932803B306D640ED
:1041800063CD960085078A073E952686A28597000F
:104190000020E780A0D8014549B7A300B700B28648
:1041A0006DBF173600200356A6069735002083C53D
:1041B0004506B385C502338696001106E3EEC5F4C5
:1041C00013863400719A1106B29623000701A300EA
:1041D00027012311D7007DB7973700209387470623
:1041E000D44F8DCE91471306A0059305F00F898318
:1041F0008A07B69703D7270003C5070009830A0774
:104200003697631DC500034517006316B5000357B5
:1042100027002391E70083D72700D1BF0145828083
:1042200083C705002300F50083D72500A300F50010
:1042300083D72500A1832301F50083C74500A3018F
:10424000F5001145828023A0019023AE018E82806B
:1042500029C1411126C206C622C4AA8401458DC5C2
:104260002E8422854146978501009385A53A9700C3
:104270000020E780A0CA83C7040005452306F40098
:1042800083C71400A306F400B240224492444101C3
:10429000828001458280011122CC26CA06CE0947C0
:1042A000AA8432846381E50441468147639BC5004B
:1042B000638FE6006397B6000DA841478147638E80
:1042C000E600F2406244D2443E85056182808A85E0
:1042D0002285BD3F41468A8519A88A85953F41467A
:1042E0008A85228531A0E39AB6FC2E86A285268592
:1042F000EFF00FB5AA87F1B723A0A190828001113A
:1043000022CC0354650006CE26CA4AC84EC641C018
:1043100083298500AE842A8803C9090081471317C1
:104320008901618763550702B147054563FA870430
:104330005114420403552800418033878900A28626
:104340004E868545EF901045B337A00085077D1454
:1043500013556900420405891379F90341802380CC
:10436000F400A380A4002381240123928400014748
:1043700019C01387190098C409476383E7000145F2
:10438000F2406244D2444249B24905618280054507
:10439000C5BFC167F917630AF502D94763F7B702CA
:1043A000011122CC2EC606CE2A84EF50D03CB24555
:1043B0006368B50022856244F24005616F70404138
:1043C000F240624405450561828005458280C167EF
:1043D000F9176314F5006F50103A411106C6EF70DB
:1043E000E02E11E15D45B2404101828039714ED627
:1043F00056D25AD006DE22DC26DA4AD852D4AA8A0D
:104400002E8BB28941EF36C6D9379145EF505046D1
:10441000AA844D492DC9B246054A2380340105447A
:10442000630A0B00B68513851400029B050513145F
:1044300005014180E20993D9894163D30902C1454D
:104440005685EF70E035654905E933868400A2851D
:104450002685EF9020782A8905E1310442044180C5
:1044600091472C085685231CF10026CE231D810080
:10447000EF60B04A2A8901C963070A0026859700C0
:104480000020E780C04CF25062544A85D254425911
:10449000B259225A925A025B21618280BA84014A3F
:1044A000ADBF011122CC26CA4AC84EC606CE2A8903
:1044B0003284B689253FAA8405E1938701909C4305
:1044C00081CF05476317E40003C409000504137492
:1044D000F40FA2854A858297F240624426854249BC
:1044E000D244B24905618280AE86014705469705F0
:1044F0000000938525D375B7011106CE2EC6EF7047
:10450000601901C9B245F2400355250005616FA04D
:10451000203AF240494505618280A38601922386B4
:10452000019223AA019023AC019023AE019023A015
:10453000019223A8019023A601909737002093872A
:10454000E7D33707B40098C33747A000D8C337076D
:1045500010009306070A94C7B7065000C106D4C7D7
:10456000930607054107D8CB3707D007410798CFF7
:1045700037070F0098D337C70700130707B8D8D3FA
:10458000416794CB93060701130717F8D8D74177F3
:1045900023AE070094D798DB8280011126CAAA8433
:1045A000214522CC06CE2E8432C636C43AC2EFE074
:1045B0005FCB1DC9A24612473246930700FD230078
:1045C000F5009947A30095002301F5002303D500CA
:1045D000A303E5002312C500AA8522856244F240A8
:1045E000D24405616FE05FD2F2406244D24405617B
:1045F000828023AAA190828023ACA190828023AEE6
:10460000A190828023A0A1928280011122CC4AC86D
:1046100006CE26CA2A890144B30489006368B4001F
:10462000F2406244D2444249056182802EC6EFE0E6
:104630003FDD93170501C183A183B2452380F400B8
:104640009307140093F7F70F850463F9B700CA972F
:1046500009042380A7001374F40F7DBF3E847DBF3F
:10466000C16717350020035505C5FD176302F50224
:10467000411103C6819B9385419206C6EF60506B42
:10468000B240FD57173700202317F7C2410182803F
:10469000828009C925151375F50F1335850E13454D
:1046A000150082800145828023800500F94763E27E
:1046B000C708797122D426D24ECE56CA5AC806D619
:1046C0004AD052CC5EC63684B289AE8A2A8B8144E7
:1046D00063FF3405B307940003CA0700138914006D
:1046E0001379F90F63050A04B3072A0163C1F904BA
:1046F000B307240183CB07005E85613F0DC9930793
:10470000FAFF2380FA0063906B03130519002295CA
:10471000B250225492540259F249624AD24A424B50
:10472000B24B45618280D29493F4F40F55B70145A2
:10473000C5B701458280411126C2AE8422C4973795
:10474000002023A1C7B89737002023ABB7B697370F
:10475000002023A5A7B62A8441469305F00F26859D
:104760004AC006C60549EFE0BFF1631E250397372F
:1047700000209387E7B3884BC145413D41469305EF
:10478000F00F2285EFE0DFEF8544631695022244A7
:10479000973700209387C7B1B24092440249C84777
:1047A000C14541019DB5414681452685EFE05FED5C
:1047B000E31625FD6DBF414681452285EFE05FECA4
:1047C000E30795FCB24022449244024941018280B1
:1047D000411122C426C22E84AA84130600028145F8
:1047E000173500201305C5AC06C6EFE05FDF97372D
:1047F0000020A38097ACA38D819AEFA0E00C8547A1
:1048000019C181474945B24022441737002023018E
:10481000F7AA924441018280814781CD19C9854719
:10482000631BF50083C7550093E707FCA382F500DF
:1048300085473E85828089476317F50083C7550009
:1048400093F7F703E5B70D478547E314E5FE03C784
:1048500055001377F70313670704A382E500D1BF60
:1048600081478DC105C103C755009306000C8547DC
:104870001377070C6308D700930600048D47630382
:10488000D70089473E858280411122C4005D06C65B
:1048900026C21DC8AA84085009C597000020E780D9
:1048A000000B485009C597000020E780400A0854D3
:1048B00009C597000020E780800922859700002025
:1048C000E780E00823AC0402B24022449244410154
:1048D000828009ED9737002083C7A79D17350020F8
:1048E0001305859E81CB138541908280173500206A
:1048F0001305859D8280173500200345859B8280A6
:10490000973700209387C79AC8478280973700203F
:104910009387079A884B828097370020938747991F
:10492000DC4B884382809737002093876798D84B69
:104930001C4385071CC31735002003459597930733
:10494000F00F6305F50091656FE07FD5828001115E
:1049500022CC06CE2E8432C6EF6010639147B2455A
:10496000631FF500938701929C438DC303A3070047
:10497000630E030022856244F2400561028393873F
:1049800081919C4381C703A34700DDB7F240624495
:10499000054505618280011122CC2A84035545001A
:1049A00006CE26CA4AC84EC6EF60504635C52A898B
:1049B000834405008349C500C13D4A85EF705036E8
:1049C00003554400EF60D05783C7C192B1CB6399C0
:1049D000970483C5D1922685EFF01FB219E1238693
:1049E000019203554400EF60305A9147631FF50070
:1049F000035744009737002083D7E78B6317F700EE
:104A0000FD57173700202318F78AF2406244D2443A
:104A10004249B2490561828081499304F00F6DB724
:104A20009307F00FE38FF4FA8346640003564400C3
:104A3000034524004E87A685EFF03FB65DB7797138
:104A40005EC6AA8B2E8552CC56CA5AC806D622D428
:104A500026D24AD04ECEAE8A328B368AEF60103BD9
:104A60006DC1045D2A89F1CC9C50614599C3130541
:104A700040039C5481C751054205418163050A00EA
:104A8000710542054181DC5081C7590542054181CC
:104A9000EFE02FFD2A8455C561468145EFE03FB424
:104AA0009739002083C989806394090083490900EC
:104AB000930700FD2300F400A947A300740123011C
:104AC000F400230364018C50231254011305840164
:104AD00091C908C47146930A440397F0FF1FE78009
:104AE000E04356858C5491C948C45146930A450108
:104AF00097F0FF1FE78080425685630C0A0008C8C4
:104B00007146D285930AC50197F0FF1FE7800041E7
:104B10005685CC5099C548C8594697F0FF1FE78085
:104B2000E03FA2854E85EFE02FFE2254B250925412
:104B3000F249624AD24A424BB24B4A850259456118
:104B4000A1B3B250225492540259F249624AD24A55
:104B5000424BB24B4561828001114EC6AA892E8517
:104B60004AC806CE22CC26CA2E89EF60302A31C52B
:104B70009724002083C4847399E083440500194579
:104B8000EFE02FEE2A8415C981451946EFE03FA5D5
:104B9000930700FD2300F400B947A300340123016B
:104BA000F40023122401A2856244F2404249B24932
:104BB0002685D24405616FE02FF5F2406244D2446D
:104BC0004249B2490561828039715ECEAA8B2E8539
:104BD00026DA4ED652D456D25AD006DE22DC4AD835
:104BE000AE84328BB68A3A8ABE8942C6EF60102202
:104BF00031C92A894145EFE0CFE62A8421C54146E3
:104C00008145EFE0DF9D172500200345256A19E166
:104C100003450900930700FD2300F400BD4723016D
:104C2000F400B247A300740123129400230464012A
:104C3000A304540123054401A30534015CC4A285E7
:104C4000EFE08FECF2506254D2544259B259225ADA
:104C5000925A025BF24B21618280797126D2AA843A
:104C600039454AD04ECE06D622D42EC6B2893689D0
:104C7000EFE02FDF21C1B2459307000D2310F500AF
:104C8000B1472A842312B5002301F500CE8519050A
:104C9000194697F0FF1FE780602823062401A285AC
:104CA0002254B2500259F24913F5F40F925445615F
:104CB0006FE08FE5B250225492540259F249456197
:104CC0008280172700200347D75E9307F00F630DFC
:104CD000F706411126C2AA84394522C406C64AC035
:104CE000EFE02FD82A8439C9930700FD2300F5008F
:104CF000A300950023010500972500209385C55C3E
:104D00000D05194697F0FF1FE78040211729002065
:104D10001309095A83578900A285172500200345E6
:104D200055592315F400834719002306F400224443
:104D3000B2409244024941016FE00FDDB24022448B
:104D400092440249410182808280011156C2AA8A9E
:104D5000314526CA4AC84EC652C406CE22CCAE84BD
:104D6000328AB6893A89EFE0CFCF29C92A842685CD
:104D7000EF60D0091DCD03450500930700FD23001A
:104D8000F4009D47A30054012301F4002312940072
:104D9000231344012314340123152401A285624402
:104DA000F240D2444249B249224A924A05616FE038
:104DB000AFD5172500200345D54FC1B7F240624457
:104DC000D2444249B249224A924A056182803971ED
:104DD00062CC2A8C594526DA4AD84ED652D456D2BD
:104DE0005AD05ECE06DE22DCAE8432C636C4BA8B22
:104DF0003E8BC28A468A8359010403494104EFE08D
:104E00004FC635C53246930700FDA2462300F50084
:104E10009547A301C500A30085012301F5002A845D
:104E200019461105A9C2B68597F0FF1FE780000F4C
:104E300023066401230A2401231574012317540156
:104E40002318440123193401A2856254F2504259B7
:104E5000B259225A925A025BF24B624C2685D254C6
:104E600021616FE06FCA8145EFE06FF7D1B7F25073
:104E70006254D2544259B259225A925A025BF24BAE
:104E8000624C216182809727002083C787428DCBA7
:104E90004111AA8519461385419006C697F0FF1F58
:104EA000E780C007938541901725002003456540A2
:104EB000EFF09F96B2401385419041016F905021D1
:104EC00001458280411106C622C426C21727002050
:104ED0000347373E9307F00F6308F704AA84294578
:104EE000EFE02FB82A8429C1930700FD2300F500C5
:104EF000A1472301F500A300950097270020938781
:104F0000273B83C72700938541901105A30FF5FE2A
:104F1000194697F0FF1FE7806000A2851725002043
:104F200003453539EFE04FBE172700200347873888
:104F300085476315F7029387C1919C4381C79C47BE
:104F400091C382972244B24092445D6603C5819B1F
:104F500013060670914541016FE07F98B2402244EC
:104F6000924441018280797122D406D626D24AD059
:104F70004ECE52CC094445C92A89035505002E8AD4
:104F80005144EF60A068AA8459CD83C7B19BFD1737
:104F900093F7F70F054749446377F7080347C500C0
:104FA000A1476314F70063100A089C5C4544A5EF11
:104FB0009165938545711305C00297000020E78035
:104FC000608F88DCAA894D4439CD1306C002814523
:104FD000EFE0EFE08357090093864900368523917F
:104FE000F90071469305490036C697F0FF1FE78028
:104FF000E0F289472380F90003C5C400B246035696
:105000000900611583C5819B13351500EF80D06BB6
:105010002A8463060A00D2852685EF70807B01C44E
:105020002685EFF07F862285B25022549254025991
:10503000F249624A4561828083C7B19BFD1793F7AD
:10504000F70F05476378F708894751C6011122CC4D
:1050500026CA4AC84EC652C406CEAA89368AB28427
:105060002E89EF60A05A2A84D14729C9485509C51D
:1050700097000020E780A08DF1452685EFE08FD8CE
:1050800048D4CD4705CD8346C40021478147639F5F
:10509000E600630D0A000347A501035605019306C8
:1050A0002501AA854E85EF60B06AAA8703474400B0
:1050B000630F0900136767002302E400F2406244B3
:1050C000D2444249B249224A3E8505618280136733
:1050D0004700DDB7C9473E858280E14763EBA70003
:1050E000972700209387871906053E9503550500ED
:1050F000828041657D158280011122CC2A842E8513
:1051000026CA06CEAE84EF6060500DCDB7470F00C3
:105110009387F723094563E2870281450A85414663
:10512000EFE0EFCBA685231081000A8541802301A3
:105130008100A3010100EF80903BF2406244D24421
:10514000056182804945D5BFA38CA19A82806F807A
:105150007050797152CC2A8A328522D426D24AD014
:105160004ECE56CA5AC85EC606D662C4AE8BB28A46
:10517000368BBA843E89C2894684EF60204915C9BE
:105180002A8C63140A0213774B008347450015CF1E
:1051900093E727012302FC008DEC631C0902639A4C
:1051A000090205E8ED9B2302FC00832B8C03639F1F
:1051B0000B06B250225492540259F249624AD24A22
:1051C000424BB24B224C45618280F59B93E707012D
:1051D000D1B793E747002302FC0001CC1C484146AD
:1051E000A2852324FC0213058C0197F0FF1FE780A2
:1051F000E0D263910B02D5D80325CC0209C597F004
:10520000FF1FE780C074F1452685EFE0AFBF23267E
:10521000AC0261BFE30B09F80325CC0209C597F086
:10522000FF1FE780C072F1454A85C5B79DC483A7BB
:105230000B0299EB916593853571714597F0FF1FCE
:10524000E780406723A0AB0203A50B0219C5714696
:10525000A68597F0FF1FE78060CC6388090283A7CB
:105260004B0299EB916593852571594597F0FF1F86
:10527000E780406423A2AB0203A54B0219C559463F
:10528000CE8597F0FF1FE78060C91DC483A78B02FE
:1052900099EB916593851571514597F0FF1FE78054
:1052A000606123A4AB0203A58B0219C55146A285F8
:1052B00097F0FF1FE78080C62254B2509254F24903
:1052C000B24B224CCA865A860259424BD685528529
:1052D000D24A624A45616FF08FF6011126CA52C464
:1052E00006CE22CC4AC84EC62A8AAE84EF6000326F
:1052F00025C5AA893945EFD0DFF62A8431CD172993
:1053000000200349A9FA6314090003C9090093079F
:10531000000D2310F400AD472301F40093856900CC
:1053200013053400194697F0FF1FE78020BF93F75D
:105330001400858085882306F400A30694002315B5
:105340004401A2856244F240D244B249224A4A85CD
:10535000424905616FD05FFBF2406244D24442494A
:10536000B249224A056182809387C190884301CD6A
:10537000411106C697F0FF1FE780605DB24023A68B
:105380000190410182808280011106CE22CC26CA82
:105390004AC82EC6EF60802739CDB24517290020B4
:1053A0000349C9F0AA840CD5631409000349050018
:1053B0004145EFD01FEB2A841DCD9307000D23102C
:1053C000F500A5472301F50083C7540093856400C9
:1053D0001105A30FF5FE194697F0FF1FE78000B4F3
:1053E0009C54A285F2405CC46244D2444A8542493E
:1053F00005616FD07FF1F2406244D24442490561B9
:105400008280797122D406D62A842EC6EF600020CD
:105410000DCD8346C5001147AA8749456393E6022F
:105420009C5FB24599C383C567010808EF7060436C
:10543000978600009386E6C8100889452285EF60AC
:10544000F035B2502254456182805145DDBF83C79B
:10545000B19BFD1793F7F70F0547637AF704894768
:1054600021CA411122C426C24AC006C6B2842E896E
:10547000EF60C0192A84D14705C563080900834736
:10548000450093E727002302F5004146A685130552
:10549000840197F0FF1FE78060A89C481CD48147D7
:1054A000B2402244924402493E8541018280C9476C
:1054B0003E858280797122D406D62A842EC6EF607A
:1054C000E01401CDB2452285230EB1006C08EF70C7
:1054D000C02CB2502254456182805145DDBF6F60BF
:1054E0006020C1671387E7FF6394E502938781918A
:1054F0009C4391EB494582804945B2402244924405
:1055000002494101828003A30700E30503FE0283F1
:10551000411122C426C24AC006C6FD172A892E841C
:10552000B2846395F502938781919C4391CB9C4310
:1055300081CB829711E523862193A386919275BF33
:10554000A6854A85EFE05FFB4DF9F5B72E85EF6044
:10555000E00B5DD1834705000D45E39027FB2285D5
:105560002244B2400249A685924441016F904034E2
:10557000E14763E8A70441677D1789476384E50431
:10558000411122C426C206C6C547AE842A84631AC6
:10559000F5001305C0033385A50242054181EF9054
:1055A000A0381315140017240020130424CD2295CD
:1055B000B240224423109500814792443E85410128
:1055C000828089473E858280011106CE2AC6EFE09F
:1055D000DFF4EF00107FEF00A072EF3081763245EC
:1055E000972700209387C7CC130700F02391E7008B
:1055F000238207007D579387819BA380E700238048
:10560000A700F240954505616F4090225D71939728
:105610000501CAC086C6A2C4A6C24EDE52DC56DA56
:105620005AD85ED662D466D26AD0C1872E8963D03A
:10563000074C03C5819BEFD0BFC68964416A856A68
:10564000797B2A84938BD4007D1AA50A691B15E007
:1056500021653345A900B640264496440649F259CF
:10566000625AD25A425BB25B225C925C025D61611B
:105670008280834704001307200A639DE7000355D7
:105680002400172C0020034CDCC22286D285EFF0C8
:105690000FAC3DAA1307100903CC919B6397E71643
:1056A000834714001547639EE7002285EFF0AFAEF5
:1056B0002285EFD05FB803C5819BEFD07FBE2A84DF
:1056C00079B739476399E71603554400631B5505BD
:1056D0000C4483C90500639D0900850591C91946DD
:1056E00017250020130545BE97F0FF1FE7800083B4
:1056F000172700200347C7BB85476318F710638A45
:10570000090097270020238507BA4E85EFF06FDB4D
:1057100045B7894717270020230CF7B8EF90001BE7
:1057200041BF93872400631AF50683298400638EA2
:10573000090C83C709008DE383C7290003C719003B
:10574000A207D98F172700202318F7B683C739007F
:1057500017270020A30EF7B417270020034747B5EB
:1057600089476314F70A83C7090081CB9727002074
:10577000238007B403C5090051BF8D47972500203A
:1057800083C515B317250020035505B3172700203F
:105790002300F7B2EF40D00CF1BF93875400631899
:1057A000F5001C4403C50700EFF0CFF111B7B307B4
:1057B0006501C207C1831147636FF7009387C191E9
:1057C0009C43E38707EE9C43E38407EE22858297A0
:1057D000E31005EE1DA89387B400631FF5009387BF
:1057E00041919C43E38607EC9C43E38307ECA2854D
:1057F0001385B4008297E9BF9387C4006310F50254
:105800001C4483C70700E38507EA9307F00FE30111
:10581000FCEAA2856285EFD03FAF71BD9387E400BB
:10582000E315F5FE938781919C43E38307E8DC430E
:10583000A285E9F3B5BD3D476397E70403554400EE
:10584000E30275FF93879401E30EF5FC938734011F
:10585000E31DF5FA9727002083D7E7A5639E47014C
:10586000938781919C43E38507E4DC43E38207E46B
:10587000A28513853401BDBF938701929C43E389C0
:1058800007E29C43E5B71307E003E390E7F883479B
:10589000240005476396E70E83476400138DC1908B
:1058A000F1E383270D00D5CB03CC0700A1490345C5
:1058B0007400930C8400E685EFE09FFA834744016F
:1058C000A303A400835804010358E40003574400D1
:1058D0002A86034534003EC283572401E686E285CA
:1058E0003EC0CE87EFF0AFCE8347340095E7DD476B
:1058F000835804010358E400834674008355440030
:105900003EC2835724013EC06687CE870546628526
:10591000EF50107DA301A40083270D0081C711451E
:10592000EFF09FA403C5C192E30405D883C5D192CB
:10593000EFE09FBCE30E05D68346340093071003C7
:10594000638AF600035644004E8783C5C1923685AC
:10595000EFE0BFC423860192A1BB172C0020034CAB
:105960005C95A9B79387C1919C43172C0020034CE9
:105970005C9491498DDFDC439DDB0145829705BF37
:105980002947639DE70883476400138DC190ADEB01
:1059900083270D00ADC303CC0700A1490345740064
:1059A000930C4401E685EFE0BFEB83470402A303B9
:1059B000A4008358C4010358A401035744002A8655
:1059C000034534003EC28357E401E686E2853EC0CB
:1059D000CE87EFF0CFBF834734009DFFDD4783586C
:1059E000C4010358A40183467400835544003EC299
:1059F0008357E40109BF172C0020034C9C8B71BF17
:105A00009387C1919C43172C0020034C9C8A914999
:105A1000D1D7DC43C1D70145829749B70947639D78
:105A2000E700938741919C43E38407C8DC43E3810B
:105A300007C822858297ADB92D476399E700938700
:105A400041919C43E38607C69C47D5B70D476397B2
:105A5000E70022868D450355440015B91947639523
:105A6000E7069305610113051031EF3081382C08EA
:105A700013052031EF30E13703566400835781016D
:105A80000355440063E8C70083568400035761014F
:105A900063F7E60093050002EF80106811B96374A4
:105AA000E6002313E40063F4D7002314F400035743
:105AB000C4008356A4000356840083556400014843
:105AC0008147EF803065EDB61D47E390E7D403577B
:105AD0004400E3ECE7D2972700209387A7870607C7
